:020000040800F2
:1000000000000220BD080008B1070008BF07000873
:10001000C9070008CF070008D50700080000000046
:10002000000000000000000000000000DB070008E6
:10003000E907000800000000F707000805080008AD
:100040000D0900080D0900080D0900080D09000838
:100050000D0900080D0900080D0900080D09000828
:100060000D0900080D0900080D0900080D09000818
:100070000D0900080D0900080D0900080D09000808
:100080000D0900080D0900080D0900080D090008F8
:100090000D0900080D0900080D0900080D090008E8
:1000A0000D0900080D0900080D0900080D090008D8
:1000B0000D0900080D0900080D0900080D090008C8
:1000C0000D0900080D0900080D0900080D090008B8
:1000D0000D0900080D090008250800080D09000891
:1000E0000D0900080D0900080D0900080D09000898
:1000F0000D0900080D0900080D0900080D09000888
:100100000D0900080D0900080D0900080D09000877
:100110000D0900080D0900080D0900080D09000867
:100120000D0900080D0900080D0900080D09000857
:100130000D0900080D0900080D0900080D09000847
:100140000D0900080D0900080D0900081108000834
:100150000D0900080D0900080D0900080D09000827
:100160000D0900080D0900080D0900080D09000817
:100170000D0900080D0900080D0900080000000025
:080180000D0900080D0900083B
:1001880010B5054C237833B9044B13B10448AFF3C9
:1001980000800123237010BD9000002000000000A3
:1001A800087D000808B5034B1BB103490348AFF3AA
:1001B800008008BD0000000094000020087D0008B1
:1001C80010F8012B11F8013B012A28BF9A42F7D0F9
:1001D800D01A7047034613F8012B002AFBD1181ACE
:1001E8000138704753B94AB9002908BF00281CBF15
:1001F8004FF0FF314FF0FF3000F06EB9ADF1080C51
:100208006DE904CE00F006F8DDF804E0DDE902232C
:1002180004B070472DE9F047089D04468C46002B32
:1002280040F083808A42174647D9B2FA82F242B137
:10023800C2F1200024FA00F09140974040EA010CF6
:1002480094404FEA1748230CBCFBF8F61FFA87FEC8
:1002580008FB16C143EA014306FB0EF1994209D98E
:10026800FB1806F1FF3080F01981994240F216819F
:10027800023E3B445B1AA4B2B3FBF8F008FB103310
:1002880044EA034400FB0EFEA64509D93C1900F1D7
:10029800FF3380F00581A64540F2028102383C44D4
:1002A80040EA0640A4EB0E0400261DB1D44000230A
:1002B800C5E900433146BDE8F08702B9FFDEB2FA6E
:1002C80082F2002A50D1CB1B4FEA174E1FFA87F84B
:1002D8000126B3FBFEFC210C0EFB1C3341EA034153
:1002E80008FB0CF38B4207D979180CF1FF3002D2C6
:1002F8008B4200F2E9808446C91AA3B2B1FBFEF032
:100308000EFB101143EA014408FB00F8A04507D989
:100318003C1900F1FF3302D2A04500F2D9801846FB
:10032800A4EB080440EA0C40BFE78B4209D9002D32
:1003380000F0B1800026C5E9000130463146BDE82D
:10034800F087B3FA83F6002E4AD18B4202D3824259
:1003580000F2B880841A61EB030101208C46002D5D
:10036800A8D0C5E9004CA5E7C2F1200320FA03F69E
:10037800974001FA02F04FEA174ED9403043030C78
:10038800B1FBFEF61FFA87F80EFB161143EA01438C
:1003980006FB08F1994204FA02F409D9FB1806F1A0
:1003A800FF3C80F08D80994240F28A80023E3B44B7
:1003B8005B1A81B2B3FBFEF00EFB103341EA034136
:1003C80000FB08F38B4207D9791800F1FF3C73D280
:1003D8008B4271D902383944CB1A40EA064678E78D
:1003E800C6F1200C03FA06F422FA0CF31C4320FA97
:1003F8000CF701FA06F34FEA144E21FA0CF11F43E9
:100408003B0CB1FBFEF91FFA84F80EFB191143EA05
:10041800014109FB08FA8A4502FA06F200FA06F3D6
:1004280008D9611809F1FF3048D28A4546D9A9F19F
:1004380002092144A1EB0A01BFB2B1FBFEF00EFB99
:10044800101147EA014700FB08F8B84507D9E71932
:1004580000F1FF312ED2B8452CD90238274440EAA2
:100468000940A7EB0807A0FB02894F45C646494645
:100478001AD317D05DB1B3EB0E0267EB010707FA89
:100488000CFCF2404CEA0202F740C5E900270026BE
:100498003146BDE8F0872E4628460BE70646E9E6D2
:1004A8001846FDE64345E5D2B8EB020E69EB0401B8
:1004B8000138DFE70846D2E760468DE78146B9E7AD
:1004C800664675E730464AE7ACF1020C394413E753
:1004D80002383C4424E700BF704700BF80B5ADF543
:1004E8009C5D82B000AF00F00FFA00F01FF800F03A
:1004F800B3F806F0E5FF4FF4E13000F081F8002290
:100508004FF40071074800F065FD01224FF40071B7
:10051800044800F05FFD044804F0ECFD06F0F6FF27
:10052800FCE700BF00000240F808002080B594B046
:1005380000AF07F1200330220021184607F0EAFA3D
:1005480007F10C0300221A605A609A60DA601A6197
:100558000023BB60284B1B6C274A43F0805313646D
:10056800254B1B6C03F08053BB60BB6800237B608A
:10057800224B1B68214A43F4804313601F4B1B68BE
:1005880003F480437B607B6801233B624FF4803334
:100598007B620223BB634FF48003FB6304233B6449
:1005A800A8237B640223BB640723FB6407F12003B1
:1005B800184602F01BFA0346002B01D000F074F82D
:1005C8000F23FB6002233B6100237B614FF4A053A0
:1005D800BB614FF48053FB6107F10C0305211846FA
:1005E80002F074FC0346002B01D000F05DF800BF58
:1005F8005037BD4680BD00BF003802400070004043
:1006080080B582B000AF7860114B124A1A60104A68
:100618007B6853600E4B00229A600D4B0022DA6013
:100628000B4B00221A610A4B0C225A61084B00221C
:100638009A61074B0022DA61054802F043FE03463F
:10064800002B01D000F030F800BF0837BD4680BD50
:10065800C40000200044004080B483B000AF0023F1
:100668007B60104B1B6B0F4A43F0800313630D4BE9
:100678001B6B03F080037B607B6800233B60094BA6
:100688001B6B084A43F001031363064B1B6B03F013
:1006980001033B603B6800BF0C37BD465DF8047B37
:1006A800704700BF0038024080B400AF00BFBD46AD
:1006B8005DF8047B7047000080B483B000AF00236E
:1006C8007B60104B5B6C0F4A43F4804353640D4BC3
:1006D8005B6C03F480437B607B6800233B60094BC1
:1006E8001B6C084A43F080531364064B1B6C03F0E1
:1006F80080533B603B6800BF0C37BD465DF8047B08
:10070800704700BF0038024080B58AB000AF7860FB
:1007180007F1140300221A605A609A60DA601A61BD
:100728007B681B681D4A934233D100233B611C4BF5
:100738001B6C1B4A43F400331364194B1B6C03F402
:1007480000333B613B690023FB60154B1B6B144A6C
:1007580043F001031363124B1B6B03F00103FB60AF
:10076800FB680C237B610223BB610023FB6103232D
:100778003B6207237B6207F114031946094800F01E
:100788008DFA00220121262000F02FFA262000F001
:1007980048FA00BF2837BD4680BD00BF004400406E
:1007A800003802400000024080B400AF00BFBD46E0
:1007B8005DF8047B704780B500AF06F0A7FEFCE744
:1007C80080B400AFFEE780B400AFFEE780B400AFAE
:1007D800FEE780B400AF00BFBD465DF8047B7047FC
:1007E80080B400AF00BFBD465DF8047B704780B49D
:1007F80000AF00BFBD465DF8047B704780B500AF11
:1008080000F0D4F800BF80BD80B500AF024800F00A
:1008180089FE00BF80BD00BFD00C002080B500AFAE
:10082800024802F0DBFE00BF80BD00BFC40000200C
:1008380080B584B000AF7860114B1B68002B02D1E3
:100848000F4B104A1A600E4B1B68FB600C4B1A6862
:100858007B6813446A46934207D907F021F9034697
:100868000C221A604FF0FF3306E0054B1A687B68CC
:100878001344034A1360FB6818461037BD4680BD11
:10088800AC000020A80F002080B400AF084BD3F8BC
:100898008830074A43F47003C2F88830044B4FF09D
:1008A80000629A6000BFBD465DF8047B704700BFD8
:1008B80000ED00E0DFF834D0002103E00C4B5B587A
:1008C800435004310B480C4B42189A42F6D30B4A5A
:1008D80002E0002342F8043B094B9A42F9D3FFF7A0
:1008E800D3FF07F0E3F8FFF7F9FD70470000022097
:1008F800F07E0008000000209000002090000020FA
:10090800A40F0020FEE7000080B500AF0E4B1B6867
:100918000D4A43F4007313600B4B1B680A4A43F4F7
:1009280080631360084B1B68074A43F480731360A5
:10093800032000F04FF9002000F008F8FFF7BCFE94
:100948000023184680BD00BF003C024080B582B03D
:1009580000AF7860124B1A68124B1B7819464FF497
:100968007A73B3FBF1F3B2FBF3F3184600F067F9BF
:100978000346002B01D001230EE07B680F2B0AD819
:10098800002279684FF0FF3000F02FF9064A7B68A3
:100998001360002300E0012318460837BD4680BDD8
:1009A80000000020080000200400002080B400AFF0
:1009B800064B1B781A46064B1B681344044A1360FF
:1009C80000BFBD465DF8047B704700BF08000020EB
:1009D8000401002080B400AF034B1B681846BD46D5
:1009E8005DF8047B704700BF0401002080B584B027
:1009F80000AF7860FFF7EEFFB8607B68FB60FB68CC
:100A0800B3F1FF3F05D00A4B1B781A46FB68134425
:100A1800FB6000BFFFF7DEFF0246BB68D31AFA6827
:100A28009A42F7D800BF00BF1037BD4680BD00BF4F
:100A38000800002080B485B000AF78607B6803F0C0
:100A48000703FB600C4BDB68BB60BA684FF6FF031B
:100A58001340BB60FB681A02BB68134343F0BF63D3
:100A680043F40033BB60044ABB68D36000BF14374B
:100A7800BD465DF8047B704700ED00E080B400AF30
:100A8800044BDB681B0A03F007031846BD465DF8F4
:100A9800047B704700ED00E080B483B000AF0346EC
:100AA800FB7197F90730002B0BDBFB7903F01F0272
:100AB800074997F907305B09012000FA02F241F86B
:100AC800232000BF0C37BD465DF8047B704700BF8C
:100AD80000E100E080B483B000AF03463960FB71E9
:100AE80097F90730002B0ADB3B68DAB20C4997F913
:100AF80007301201D2B20B4483F800230AE03B68A6
:100B0800DAB20849FB7903F00F03043B1201D2B2B1
:100B18000B441A7600BF0C37BD465DF8047B70475E
:100B280000E100E000ED00E080B489B000AFF860BB
:100B3800B9607A60FB6803F00703FB61FB69C3F1E6
:100B48000703042B28BF0423BB61FB690433062B6E
:100B580002D9FB69033B00E000237B614FF0FF32C1
:100B6800BB6902FA03F3DA43BB681A407B699A400F
:100B78004FF0FF317B6901FA03F3D9437B680B40DF
:100B8800134318462437BD465DF8047B70470000C0
:100B980080B582B000AF78607B68013BB3F1807F9D
:100BA80001D301230FE00A4A7B68013B53600F2100
:100BB8004FF0FF30FFF78EFF054B00229A60044B81
:100BC80007221A60002318460837BD4680BD00BFBB
:100BD80010E000E080B582B000AF78607868FFF779
:100BE80029FF00BF0837BD4680BD80B586B000AF7D
:100BF8000346B9607A60FB7300237B61FFF73EFF11
:100C080078617A68B9687869FFF78EFF024697F9C4
:100C18000F3011461846FFF75DFF00BF1837BD4675
:100C280080BD80B582B000AF0346FB7197F90730ED
:100C38001846FFF731FF00BF0837BD4680BD80B5B5
:100C480082B000AF78607868FFF7A2FF03461846C5
:100C58000837BD4680BD80B483B000AF78607B683C
:100C680093F83530DBB2022B04D07B6880225A65BA
:100C780001230CE07B68052283F835207B681B681C
:100C88001A687B681B6822F001021A600023184664
:100C98000C37BD465DF8047B7047000080B489B00E
:100CA80000AF7860396000237B6100233B6100233B
:100CB800BB610023FB616BE10122FB6902FA03F3CC
:100CC8007B613B681B687A6913403B613A697B69C1
:100CD8009A4240F05A813B685B68012B0BD03B6815
:100CE8005B68022B07D03B685B68112B03D03B681D
:100CF8005B68122B30D17B689B68BB61FB695B002A
:100D0800032202FA03F3DB43BA691340BB613B6871
:100D1800DA68FB695B0002FA03F3BA691343BB6143
:100D28007B68BA699A607B685B68BB610122FB6972
:100D380002FA03F3DB43BA691340BB613B685B68A3
:100D48001B0903F00102FB6902FA03F3BA691343B2
:100D5800BB617B68BA695A607B68DB68BB61FB6909
:100D68005B00032202FA03F3DB43BA691340BB6159
:100D78003B689A68FB695B0002FA03F3BA6913439C
:100D8800BB617B68BA69DA603B685B68022B03D099
:100D98003B685B68122B23D1FB69DA087B68083251
:100DA80053F82230BB61FB6903F007039B000F2255
:100DB80002FA03F3DB43BA691340BB613B681A6963
:100DC800FB6903F007039B0002FA03F3BA691343B4
:100DD800BB61FB69DA087B680832B96943F82210FD
:100DE8007B681B68BB61FB695B00032202FA03F3A3
:100DF800DB43BA691340BB613B685B6803F00302DD
:100E0800FB695B0002FA03F3BA691343BB617B68B1
:100E1800BA691A603B685B6803F08053002B00F0E6
:100E2800B4800023FB60604B5B6C5F4A43F48043F3
:100E380053645D4B5B6C03F48043FB60FB685B4A67
:100E4800FB699B08023352F82330BB61FB6903F04E
:100E580003039B000F2202FA03F3DB43BA69134032
:100E6800BB617B68524A93422BD07B68514A9342BC
:100E780025D07B68504A93421FD07B684F4A9342E3
:100E880019D07B684E4A934213D07B684D4A9342EF
:100E98000DD07B684C4A934207D07B684B4A9342FB
:100EA80001D107230EE008230CE006230AE00523FE
:100EB80008E0042306E0032304E0022302E0012300
:100EC80000E00023FA6902F0030292009340BA6935
:100ED8001343BB613549FB699B080233BA6941F882
:100EE80023203B4B1B68BB613B69DB43BA6913405A
:100EF800BB613B685B6803F48033002B03D0BA699D
:100F08003B691343BB61324ABB691360304B5B6872
:100F1800BB613B69DB43BA691340BB613B685B68F3
:100F280003F40033002B03D0BA693B691343BB6158
:100F3800274ABB695360264B9B68BB613B69DB430F
:100F4800BA691340BB613B685B6803F48013002BEC
:100F580003D0BA693B691343BB611D4ABB699360FF
:100F68001B4BDB68BB613B69DB43BA691340BB6160
:100F78003B685B6803F40013002B03D0BA693B6934
:100F88001343BB61124ABB69D360FB690133FB6140
:100F9800FB690F2B7FF690AE00BF00BF2437BD461C
:100FA8005DF8047B704700BF0038024000380140FC
:100FB800000002400004024000080240000C024009
:100FC800001002400014024000180240001C0240B9
:100FD800003C014080B483B000AF78600B467B8052
:100FE80013467B707B78002B03D07A887B689A61E4
:100FF80003E07B881A047B689A6100BF0C37BD4602
:101008005DF8047B7047F0B58FB00AAF78607B68F5
:10101800002B01D1012354E07B681B68FB607B68CF
:1010280093F8B932DBB2002B06D17B68002283F833
:10103800B822786806F0A2FA7B68032283F8B922FE
:10104800FB68DB6B03F48073002B02D17B68002202
:101058001A617B681B68184603F058F97B681B689F
:101068003B607E686D4606F110040FCC0FC50FCCAF
:101078000FC594E8030085E80300331D0ECB3868DC
:1010880003F0D2F87B681B680121184603F04FF97A
:101098007B681B683B607E686D4606F110040FCCC8
:1010A8000FC50FCC0FC594E8030085E80300331D76
:1010B8000ECB386803F062FA7B68012283F8B92204
:1010C800002318461437BD46F0BD90B589B004AF6B
:1010D8007860084611461A460346FB700B46BB70FB
:1010E80013467B707B6893F8B832012B01D1022339
:1010F8007FE07B68012283F8B822FA787968134682
:101108009B001344DB000B443D3300221A70FA782D
:10111800796813469B001344DB000B4438337A7814
:101128001A70FA78796813469B001344DB000B4465
:1011380040333A8D1A80FA78796813469B00134435
:10114800DB000B443933FA781A70FA787968134659
:101158009B001344DB000B443F3397F824201A709C
:10116800FA78BB7803F07F03D8B2796813469B00FE
:101178001344DB000B443A3302461A7097F90230E5
:10118800002B0ADAFA78796813469B001344DB00CF
:101198000B443B3301221A7009E0FA787968134648
:1011A8009B001344DB000B443B3300221A70FA788F
:1011B800796813469B001344DB000B443C3397F8D3
:1011C80020201A707B6818687C78BA78F9783B8D8B
:1011D800029397F82430019397F820300093234620
:1011E80003F04EFB0346FB737B68002283F8B822AA
:1011F800FB7B18461437BD4690BD80B584B000AF60
:1012080078600B46FB700023FB737B6893F8B83259
:10121800012B01D102230FE07B68012283F8B82259
:101228007B681B68FA781146184603F086FD7B68D0
:10123800002283F8B822FB7B18461037BD4680BDD4
:1012480080B582B000AF7860084611461A4603465A
:10125800FB700B46BB7013467B70FA7879681346AF
:101268009B001344DB000B443B33BA781A70FA78BE
:10127800796813469B001344DB000B443F337A78AC
:101288001A703B7C002B14D1FA78796813469B00BE
:101298001344DB000B44423303221A70FA7879684E
:1012A80013469B001344DB000B443D333A7F1A700E
:1012B80009E0FA78796813469B001344DB000B4475
:1012C800423302221A707B78032B00F2D68001A2E7
:1012D80052F823F0ED1200086D14000859130008A5
:1012E800E31300083B7C012B40F0C980BB78002B3E
:1012F80040F0C5803B8B002B09D1FA7879681346FA
:101308009B001344DB000B44513301221A70FA7816
:10131800796813469B001344DB000B4451331B7858
:10132800002B0AD1FA78796813469B001344DB0036
:101338000B44423300221A70A1E0FA787968134608
:101348009B001344DB000B44423302221A7096E0E0
:10135800BB78002B20D1FA78796813469B00134498
:10136800DB000B4451331B78002B0AD1FA787968DB
:1013780013469B001344DB000B44423300221A70CF
:101388007EE0FA78796813469B001344DB000B442F
:10139800423302221A7073E0FA78796813469B0088
:1013A8001344DB000B4450331B78002B0AD1FA7826
:1013B800796813469B001344DB000B444233002238
:1013C8001A705DE0FA78796813469B001344DB00D5
:1013D8000B44423302221A7052E0BB78002B20D112
:1013E800FA78796813469B001344DB000B445133A9
:1013F8001B78002B0AD1FA78796813469B001344AE
:10140800DB000B44423300221A7039E0FA7879681D
:1014180013469B001344DB000B44423302221A702C
:101428002EE0FA78796813469B001344DB000B44DE
:1014380050331B78002B0AD1FA78796813469B0041
:101448001344DB000B44423300221A7018E0FA7888
:10145800796813469B001344DB000B444233022295
:101468001A700DE0FA78796813469B001344DB0084
:101478000B44423300221A7002E000BF00E000BFB4
:10148800FA78796813469B001344DB000B44443315
:101498007A691A60FA78398B786813469B00134486
:1014A800DB00034448331960FA78796813469B00D7
:1014B8001344DB000B445C3300221A70FA78796815
:1014C80013469B001344DB000B444C3300221A6084
:1014D800FA78796813469B001344DB000B443933D0
:1014E800FA781A70FA78796813469B001344DB007F
:1014F8000B445D3300221A707B681868FA7813462B
:101508009B001344DB0038337A68D1187B681B6969
:10151800DBB21A4603F0BEFA034618460837BD4642
:1015280080BD00BF80B586B000AF78607B681B685F
:101538003B613B69FB607B681B68184602F0DBFF78
:101548000346012B40F0EF807B681B68184602F0C9
:10155800BFFF0346002B00F0E5807B681B68184638
:1015680002F0B6FF034603F40013B3F5001F04D1DD
:101578007B681B684FF400125A617B681B68184629
:1015880002F0A6FF034603F48013B3F5801F04D1CD
:101598007B681B684FF480125A617B681B68184689
:1015A80002F096FF034603F08063B3F1806F04D125
:1015B8007B681B684FF080625A617B681B6818461D
:1015C80002F086FF034603F00203022B03D17B6877
:1015D8001B6802225A617B681B68184602F078FF74
:1015E800034603F00053B3F1005F15D17B681B6815
:1015F8004FF000525A61FB6803F588631B6803F0DB
:101608000103002B08D1786806F028F87B681B686E
:101618000121184603F06EF87B681B68184602F033
:1016280057FF034603F08073B3F1807F02D17868D7
:1016380001F068F97B681B68184602F049FF034609
:1016480003F00803082B06D1786805F0EBFF7B68E8
:101658001B6808225A617B681B68184602F038FF2D
:10166800034603F00073B3F1007F38D17B681B6831
:10167800184603F051FBB86000237B6125E07B69C5
:1016880003F00F03BA6822FA03F303F00103002BF7
:1016980018D07B695A01FB68134403F5A0631B68E3
:1016A80003F40043B3F5004F06D17B69DBB219465A
:1016B800786800F0CFF805E07B69DBB219467868F6
:1016C80000F0FDFC7B6901337B617B689B687A696C
:1016D8009A42D4D37B681B684FF000725A617B68CA
:1016E8001B68184602F0F4FE034603F01003102BA3
:1016F80001D1012300E00023002B14D07B681B6874
:101708009A697B681B6822F010029A61786801F078
:101718004BF87B681B689A697B681B6842F010026B
:101728009A6100E000BF1837BD4680BD80B582B021
:1017380000AF78607B6893F8B832012B01D102239F
:1017480013E07B68012283F8B8227B681B6818467F
:1017580002F0CBFD7B681B680121184603F02EF8C8
:101768007B68002283F8B822002318460837BD4654
:1017780080BD80B582B000AF78607B6893F8B832DE
:10178800012B01D102230DE07B68012283F8B822E6
:101798007B681B68184603F00BFC7B68002283F803
:1017A800B822002318460837BD4680BD80B582B0F0
:1017B80000AF78607B681B68184602F0D5FF0346C7
:1017C80018460837BD4680BD80B483B000AF786046
:1017D8000B46FB70FA78796813469B001344DB00CC
:1017E8000B445C331B7818460C37BD465DF8047B08
:1017F800704780B483B000AF78600B46FB70FA780E
:10180800796813469B001344DB000B444C331B6878
:1018180018460C37BD465DF8047B704780B582B02A
:1018280000AF78607B681B68184603F017F803461A
:1018380018460837BD4680BD80B582B000AF7860D5
:101848007B681B68184602F0F2FF03461846083703
:10185800BD4680BD80B586B000AF78600B46FB7092
:101868007B681B687B617B693B61FB78FB60FB687D
:101878005A013B69134403F5A0639B6803F0040312
:10188800042B19D1FB685A013B69134403F5A06383
:101898001A4604239360FB685A013B69134403F515
:1018A800A063DB68FA6851013A690A4402F5A0624C
:1018B80043F00203D360CEE0FB685A013B6913444E
:1018C80003F5A0639B6803F48073B3F5807F2CD184
:1018D800FB685A013B69134403F5A0631A464FF4A9
:1018E800807393607968FA6813469B001344DB00A1
:1018F8000B445D3307221A70FB685A013B69134495
:1019080003F5A063DB68FA6851013A690A4402F5F5
:10191800A06243F00203D3607B681B68FA68D2B206
:101928001146184603F009FA95E0FB685A013B692D
:10193800134403F5A0639B6803F02003202B09D10F
:10194800FB685A013B69134403F5A0631A46202338
:10195800936080E0FB685A013B69134403F5A06378
:101968009B6803F00803082B34D1FB685A013B69D4
:10197800134403F5A063DB68FA6851013A690A4425
:1019880002F5A06243F00203D3607968FA6813464F
:101998009B001344DB000B445D3305221A70FB687F
:1019A8005A013B69134403F5A0631A461023936058
:1019B800FB685A013B69134403F5A0631A460823E0
:1019C80093607B681B68FA68D2B21146184603F028
:1019D800B4F940E0FB685A013B69134403F5A0637E
:1019E8009B6803F48063B3F5806F34D1FB685A01B8
:1019F8003B69134403F5A063DB68FA6851013A694F
:101A08000A4402F5A06243F00203D3607B681B68B6
:101A1800FA68D2B21146184603F08FF9FB685A01EA
:101A28003B69134403F5A0631A4610239360796851
:101A3800FA6813469B001344DB000B445D3308220D
:101A48001A70FB685A013B69134403F5A0631A46F0
:101A58004FF480639360FB685A013B69134403F5B4
:101A6800A0639B6803F40073B3F5007F22D1FB6881
:101A78005A013B69134403F5A063DB68FA68510116
:101A88003A690A4402F5A06243F00203D3607B6816
:101A98001B68FA68D2B21146184603F04EF9FB6883
:101AA8005A013B69134403F5A0631A464FF40073C7
:101AB800936000E3FB685A013B69134403F5A06394
:101AC8009B6803F00103012B40F0FD807B681B69D4
:101AD800002B1BD07968FA6813469B001344DB007F
:101AE8000B4448331A68FB6859013B690B4403F5FA
:101AF800A0631B69C3F31203D11A7868FA68134606
:101B08009B001344DB0003444C3319607968FA687E
:101B180013469B001344DB000B445D3301221A700B
:101B28007968FA6813469B001344DB000B4458336A
:101B380000221A60FB685A013B69134403F5A0634D
:101B48001A46012393607968FA6813469B00134488
:101B5800DB000B443F331B78002B0AD07968FA6806
:101B680013469B001344DB000B443F331B78022BC6
:101B780021D1FB685A013B69134403F5A063DB6874
:101B8800FA6851013A690A4402F5A06243F0020377
:101B9800D3607B681B68FA68D2B21146184603F016
:101BA800CCF8FB685A013B69134403F5A0631A4655
:101BB8001023936070E07968FA6813469B00134419
:101BC800DB000B443F331B78032B2AD1FB685A01F7
:101BD8003B69134403F5A0631B68FA6851013A692D
:101BE8000A4402F5A06243F0005313607968FA686A
:101BF80013469B001344DB000B445C3301221A702C
:101C0800FB68D8B27968FA6813469B001344DB0076
:101C18000B445C331B781A460146786805F02CFDA6
:101C28003AE07968FA6813469B001344DB000B44DA
:101C38003F331B78012B2FD17968FA6813469B0034
:101C48001344DB000B445C3301221A707968FA688C
:101C580013469B001344DB000B4450331B7883F07E
:101C68000103D8B27968FA6813469B001344DB0075
:101C78000B44503302461A70FB68D8B27968FA6888
:101C880013469B001344DB000B445C331B781A4655
:101C98000146786805F0F0FC7968FA6813469B00FD
:101CA8001344DB000B4450331B7883F00103D8B294
:101CB8007968FA6813469B001344DB000B445033E1
:101CC80002461A70F7E1FB685A013B69134403F5B1
:101CD800A0639B6803F00203022B40F01A81FB68A3
:101CE8005A013B69134403F5A063DB68FA685101A4
:101CF8003A690A4402F5A06223F00203D3607968C6
:101D0800FA6813469B001344DB000B445D331B78D1
:101D1800012B0AD17968FA6813469B001344DB004B
:101D28000B445C3301221A70D9E07968FA681346CB
:101D38009B001344DB000B445D331B78052B0AD151
:101D48007968FA6813469B001344DB000B445C3344
:101D580005221A70C3E07968FA6813469B00134499
:101D6800DB000B445D331B78062B0AD07968FA68D0
:101D780013469B001344DB000B445D331B78082B90
:101D880056D17968FA6813469B001344DB000B446C
:101D980058331B68591C7868FA6813469B0013442B
:101DA800DB000344583319607968FA6813469B00CE
:101DB8001344DB000B4458331B68032B14D9796890
:101DC800FA6813469B001344DB000B445833002287
:101DD8001A607968FA6813469B001344DB000B44C9
:101DE8005C3304221A7009E07968FA6813469B008C
:101DF8001344DB000B445C3302221A70FB685A015F
:101E08003B69134403F5A0631B68BB60BB6823F000
:101E18008043BB60BB6843F00043BB60FB685A016A
:101E28003B69134403F5A0631A46BB68136056E088
:101E38007968FA6813469B001344DB000B445D3352
:101E48001B78032B23D17968FA6813469B00134447
:101E5800DB000B445C3302221A70FB685A013B69B1
:101E6800134403F5A0631B68BB60BB6823F0804381
:101E7800BB60BB6843F00043BB60FB685A013B6929
:101E8800134403F5A0631A46BB68136027E079681A
:101E9800FA6813469B001344DB000B445D331B7840
:101EA800072B1CD17968FA6813469B001344DB00A2
:101EB8000B4458331B68591C7868FA6813469B0012
:101EC8001344DB000344583319607968FA681346F1
:101ED8009B001344DB000B445C3304221A70FB683C
:101EE8005A013B69134403F5A0631A460223936021
:101EF800FB68D8B27968FA6813469B001344DB0084
:101F08000B445C331B781A460146786805F0B4FB2D
:101F1800D1E0FB685A013B69134403F5A0639B6851
:101F280003F08003802B3ED1FB685A013B691344C0
:101F380003F5A063DB68FA6851013A690A4402F5BF
:101F4800A06243F00203D3607968FA6813469B00E5
:101F58001344DB000B4458331B68591C7868FA6833
:101F680013469B001344DB00034458331960796817
:101F7800FA6813469B001344DB000B445D330622CA
:101F88001A707B681B68FA68D2B21146184602F0CC
:101F9800D4FEFB685A013B69134403F5A0631A4653
:101FA8008023936087E0FB685A013B69134403F57B
:101FB800A0639B6803F01003102B7CD17968FA6842
:101FC80013469B001344DB000B443F331B78032B61
:101FD80022D17968FA6813469B001344DB000B444E
:101FE800583300221A60FB685A013B69134403F511
:101FF800A063DB68FA6851013A690A4402F5A062F5
:1020080043F00203D3607B681B68FA68D2B21146BA
:10201800184602F092FE45E07968FA6813469B007C
:102028001344DB000B443F331B78002B0AD079683C
:10203800FA6813469B001344DB000B443F331B78BC
:10204800022B2FD17968FA6813469B001344DB00F2
:102058000B44583300221A607B681B69002B21D17E
:102068007968FA6813469B001344DB000B445D3320
:1020780003221A70FB685A013B69134403F5A063F5
:10208800DB68FA6851013A690A4402F5A06243F034
:102098000203D3607B681B68FA68D2B211461846FF
:1020A80002F04BFEFB685A013B69134403F5A06339
:1020B8001A461023936000BF1837BD4680BD80B50F
:1020C80086B000AF78600B46FB707B681B687B614D
:1020D8007B693B61FB78FB60FB685A013B691344F1
:1020E80003F5A0639B6803F00403042B19D1FB6874
:1020F8005A013B69134403F5A0631A46042393600D
:10210800FB685A013B69134403F5A063DB68FA686E
:1021180051013A690A4402F5A06243F00203D36010
:102128003EE3FB685A013B69134403F5A0639B68CF
:1021380003F02003202B41D1FB685A013B6913446B
:1021480003F5A0631A46202393607968FA6813465A
:102158009B001344DB000B443D331B78012B40F0FC
:102168001F837968FA6813469B001344DB000B440D
:102178003D3300221A707968FA6813469B001344AD
:10218800DB000B445C3302221A70FB685A013B697E
:10219800134403F5A063DB68FA6851013A690A44FD
:1021A80002F5A06243F00203D3607B681B68FA68FB
:1021B800D2B21146184602F0C0FDF1E2FB685A019E
:1021C8003B69134403F5A0639B6803F04003402B6D
:1021D8003FD17968FA6813469B001344DB000B442F
:1021E8005D3304221A707968FA6813469B00134419
:1021F800DB000B443D3301221A707968FA681346F4
:102208009B001344DB000B44583300221A60FB6820
:102218005A013B69134403F5A063DB68FA6851016E
:102228003A690A4402F5A06243F00203D3607B686E
:102238001B68FA68D2B21146184602F07EFDFB68A8
:102248005A013B69134403F5A0631A46402393607F
:10225800A6E2FB685A013B69134403F5A0639B6837
:1022680003F40073B3F5007F22D1FB685A013B6980
:10227800134403F5A063DB68FA6851013A690A441C
:1022880002F5A06243F00203D3607B681B68FA681A
:10229800D2B21146184602F050FDFB685A013B695C
:1022A800134403F5A0631A464FF40073936077E272
:1022B800FB685A013B69134403F5A0639B6803F06C
:1022C8000103012B35D17968FA6813469B00134442
:1022D800DB000B44583300221A60FB685A013B6943
:1022E800134403F5A063DB68FA6851013A690A44AC
:1022F80002F5A06243F00203D3607B681B68FA68AA
:10230800D2B21146184602F018FDFB685A013B6923
:10231800134403F5A0631A46012393607968FA68A9
:1023280013469B001344DB000B445D3301221A70F3
:1023380036E2FB685A013B69134403F5A0639B68C6
:1023480003F00803082B2BD1FB685A013B6913449F
:1023580003F5A0631A4608239360FB685A013B699A
:10236800134403F5A063DB68FA6851013A690A442B
:1023780002F5A06243F00203D3607B681B68FA6829
:10238800D2B21146184602F0D8FC7968FA681346AA
:102398009B001344DB000B445D3305221A70FFE1F8
:1023A800FB685A013B69134403F5A0639B6803F07B
:1023B8001003102B55D17968FA6813469B00134413
:1023C800DB000B44583300221A607968FA68134618
:1023D8009B001344DB000B445D3303221A707968B9
:1023E800FA6813469B001344DB000B443D331B780B
:1023F800002B14D17968FA6813469B001344DB005C
:102408000B443C331B78002B09D17968FA681346D2
:102418009B001344DB000B443D3301221A70FB6818
:102428005A013B69134403F5A063DB68FA6851015C
:102438003A690A4402F5A06243F00203D3607B685C
:102448001B68FA68D2B21146184602F076FCFB689F
:102458005A013B69134403F5A0631A46102393609D
:102468009EE1FB685A013B69134403F5A0639B682E
:1024780003F08003802B2BD1FB685A013B6913447E
:1024880003F5A063DB68FA6851013A690A4402F56A
:10249800A06243F00203D3607B681B68FA68D2B27B
:1024A8001146184602F049FC7968FA6813469B0001
:1024B8001344DB000B445D3306221A70FB685A0193
:1024C8003B69134403F5A0631A468023936067E1D0
:1024D800FB685A013B69134403F5A0639B6803F446
:1024E8008063B3F5806F35D1FB685A013B691344AB
:1024F80003F5A063DB68FA6851013A690A4402F5FA
:10250800A06243F00203D3607B681B68FA68D2B20A
:102518001146184602F011FCFB685A013B69134446
:1025280003F5A0631A4610239360FB685A013B69C0
:10253800134403F5A0631A464FF4806393607968E7
:10254800FA6813469B001344DB000B445D330822F2
:102558001A7025E1FB685A013B69134403F5A0632F
:102568009B6803F00203022B40F01A81FB685A01B2
:102578003B69134403F5A063DB68FA6851013A69C3
:102588000A4402F5A06223F00203D3607968FA686E
:1025980013469B001344DB000B445D331B78012B6F
:1025A80037D17968FA6813469B001344DB000B4463
:1025B8005C3301221A707968FA6813469B00134449
:1025C800DB000B443F331B78022B0BD07968FA6889
:1025D80013469B001344DB000B443F331B78032B4B
:1025E80040F0C5807968FA6813469B001344DB0005
:1025F8000B4451331B7883F00103D8B27968FA6829
:1026080013469B001344DB000B44513302461A70F7
:10261800ADE07968FA6813469B001344DB000B446D
:102628005D331B78032B0AD17968FA6813469B003F
:102638001344DB000B445C3302221A7097E079687C
:10264800FA6813469B001344DB000B445D331B7888
:10265800042B0AD17968FA6813469B001344DB00FF
:102668000B445C3302221A7081E07968FA681346D9
:102678009B001344DB000B445D331B78052B0AD108
:102688007968FA6813469B001344DB000B445C33FB
:1026980005221A706BE07968FA6813469B001344A8
:1026A800DB000B445D331B78062B0AD07968FA6887
:1026B80013469B001344DB000B445D331B78082B47
:1026C80055D17968FA6813469B001344DB000B4424
:1026D80058331B68591C7868FA6813469B001344E2
:1026E800DB000344583319607968FA6813469B0085
:1026F8001344DB000B4458331B68032B14D9796847
:10270800FA6813469B001344DB000B44583300223D
:102718001A607968FA6813469B001344DB000B447F
:102728005C3304221A7009E07968FA6813469B0042
:102738001344DB000B445C3302221A70FB685A0115
:102748003B69134403F5A0631B68BB60BB6823F0B7
:102758008043BB60BB6843F00043BB60FB685A0121
:102768003B69134403F5A0631A46BB681360FB6812
:102778005A013B69134403F5A0631A460223936088
:10278800FB68D8B27968FA6813469B001344DB00EB
:102798000B445C331B781A460146786804F06CFFDA
:1027A80000BF1837BD4680BD80B58AB000AF7860DD
:1027B8007B681B687B627B6A3B627B681B681B6A61
:1027C800FB61FB6903F00F03BB61FB695B0C03F062
:1027D8000F037B61FB691B09C3F30A033B617B6938
:1027E800022B04D07B69052B00F0828083E03B69D3
:1027F800002B7FD07968BA6913469B001344DB002D
:102808000B4444331B68002B74D07B6818687968C4
:10281800BA6913469B001344DB000B4444331B681E
:102828003A6992B2194601F02AFE7968BA691346E4
:102838009B001344DB000B4444331A683B69D118EE
:102848007868BA6913469B001344DB000344443399
:1028580019607968BA6913469B001344DB000B447E
:102868004C331A683B69D1187868BA6913469B00DB
:102878001344DB0003444C331960BB695A013B6ABB
:10288800134403F5A0631A691D4B1340002B31D084
:10289800BB695A013B6A134403F5A0631B68FB60DC
:1028A800FB6823F08043FB60FB6843F00043FB6058
:1028B800BB695A013B6A134403F5A0631A46FB68D7
:1028C80013607968BA6913469B001344DB000B4414
:1028D80050331B7883F00103D8B27968BA6913467C
:1028E8009B001344DB000B44503302461A7001E08E
:1028F80000BF00E000BF00BF2837BD4680BD00BF55
:102908000000F81F80B586B000AF78607B681B6850
:102918007B617B693B613B6903F588631B68FB60EE
:102928003B6903F588631B68BB60BB6823F02E0313
:10293800BB60FB6803F00203022B0BD1FB6803F0BA
:102948000103012B02D1786804F07AFEBB6843F0DA
:102958000203BB60FB6803F00803082B32D1BB6895
:1029680043F00803BB60FB6803F00403042B26D183
:102978007B689B69022B13D1FB6803F4C023B3F572
:10298800802F06D17B681B680221184601F0B2FE31
:1029980011E07B681B680121184601F0ABFE0AE0D4
:1029A8007B68DB68012B06D13B6903F580631A4617
:1029B8004EF660235360786804F06CFE02E0786895
:1029C80004F076FEFB6803F02003202B03D1BB68DC
:1029D80043F02003BB603B6903F588631A46BB6874
:1029E800136000BF1837BD4680BD000080B586B0B3
:1029F80000AF78607B68002B01D101235BE27B6824
:102A08001B6803F00103002B75D0A34B9B6803F0F0
:102A18000C03042B0CD0A04B9B6803F00C03082B71
:102A280012D19D4B5B6803F48003B3F5800F0BD183
:102A3800994B1B6803F40033002B5BD07B685B6801
:102A4800002B57D1012336E27B685B68B3F5803FE2
:102A580006D1914B1B68904A43F4803313601DE004
:102A68007B685B68B3F5A02F0CD18B4B1B688A4A37
:102A780043F480231360884B1B68874A43F48033F0
:102A880013600BE0844B1B68834A23F48033136084
:102A9800814B1B68804A23F4802313607B685B6842
:102AA800002B13D0FDF796FF386108E0FDF792FF81
:102AB80002463B69D31A642B01D90323FBE1764B09
:102AC8001B6803F40033002BF0D014E0FDF782FFFD
:102AD800386108E0FDF77EFF02463B69D31A642B94
:102AE80001D90323E7E16C4B1B6803F40033002B87
:102AF800F0D100E000BF7B681B6803F00203002BE5
:102B080063D0654B9B6803F00C03002B0BD0624B22
:102B18009B6803F00C03082B1CD15F4B5B6803F424
:102B28008003002B16D15C4B1B6803F00203002BBB
:102B380005D07B68DB68012B01D00123BBE1564B34
:102B48001B6823F0F8027B681B69DB0052491343BA
:102B58000B603AE07B68DB68002B20D04F4B0122EA
:102B68001A60FDF737FF386108E0FDF733FF0246CA
:102B78003B69D31A022B01D903239CE1464B1B68FE
:102B880003F00203002BF0D0434B1B6823F0F8023C
:102B98007B681B69DB00404913430B6015E03F4B22
:102BA80000221A60FDF716FF386108E0FDF712FFF2
:102BB80002463B69D31A022B01D903237BE1364B2A
:102BC8001B6803F00203002BF0D17B681B6803F03D
:102BD8000803002B30D07B685B69002B16D0304B84
:102BE80001221A60FDF7F6FE386108E0FDF7F2FEF3
:102BF80002463B69D31A022B01D903235BE1264B1A
:102C08005B6F03F00203002BF0D015E0244B002289
:102C18001A60FDF7DFFE386108E0FDF7DBFE0246CB
:102C28003B69D31A022B01D9032344E11A4B5B6F8A
:102C380003F00203002BF0D17B681B6803F0040348
:102C4800002B00F0A0800023FB75134B1B6C03F0D6
:102C58008053002B0FD10023BB600F4B1B6C0E4A17
:102C680043F0805313640C4B1B6C03F08053BB6020
:102C7800BB680123FB750B4B1B6803F48073002BA7
:102C880021D1084B1B68074A43F480731360FDF792
:102C9800A1FE386111E000BF003802400000474241
:102CA800800E474200700040FDF794FE02463B69E3
:102CB800D31A022B01D90323FDE0814B1B6803F4CF
:102CC8008073002BF0D07B689B68012B06D17D4B6D
:102CD8001B6F7C4A43F0010313671CE07B689B6809
:102CE800052B0CD1774B1B6F764A43F0040313670F
:102CF800744B1B6F734A43F0010313670BE0714B6E
:102D08001B6F704A23F0010313676E4B1B6F6D4AEC
:102D180023F0040313677B689B68002B15D0FDF72D
:102D280059FE38610AE0FDF755FE02463B69D31AA1
:102D380041F28832934201D90323BCE0614B1B6FF7
:102D480003F00203002BEED014E0FDF743FE3861D8
:102D58000AE0FDF73FFE02463B69D31A41F288328A
:102D6800934201D90323A6E0564B1B6F03F00203DD
:102D7800002BEED1FB7D012B05D1524B1B6C514A28
:102D880023F0805313647B689B69002B00F09280CA
:102D98004C4B9B6803F00C03082B5CD07B689B6949
:102DA800022B41D1484B00221A60FDF713FE38610F
:102DB80008E0FDF70FFE02463B69D31A022B01D942
:102DC800032378E03F4B1B6803F00073002BF0D11E
:102DD8007B68DA697B681B6A1A437B685B6A9B01BC
:102DE8001A437B689B6A5B08013B1B041A437B6898
:102DF800DB6A1B06334913434B60334B01221A60CD
:102E0800FDF7E8FD386108E0FDF7E4FD02463B699F
:102E1800D31A022B01D903234DE02A4B1B6803F078
:102E28000073002BF0D045E0274B00221A60FDF715
:102E3800D1FD386108E0FDF7CDFD02463B69D31AA4
:102E4800022B01D9032336E01E4B1B6803F00073E5
:102E5800002BF0D12EE07B689B69012B01D1012367
:102E680029E0184B5B68FB60FB6803F480027B6811
:102E7800DB699A421CD1FB6803F03F027B681B6A3E
:102E88009A4215D1FA6847F6C07313407A68526AB5
:102E980093420DD1FB6803F440327B689B6A9A42E7
:102EA80006D1FB6803F070627B68DB6A9A4201D046
:102EB800012300E0002318461837BD4680BD00BF37
:102EC80000700040003802406000474280B584B07E
:102ED80000AF786039607B68002B01D10123CCE01A
:102EE800684B1B6803F00F033A689A420CD9654B8C
:102EF8003A68D2B21A70634B1B6803F00F033A6842
:102F08009A4201D00123B8E07B681B6803F00203F2
:102F1800002B20D07B681B6803F00403002B05D02E
:102F2800594B9B68584A43F4E05393607B681B688D
:102F380003F00803002B05D0534B9B68524A43F417
:102F480060439360504B9B6823F0F0027B689B685A
:102F58004D4913438B607B681B6803F00103002B0A
:102F680044D07B685B68012B07D1474B1B6803F48F
:102F78000033002B19D101237FE07B685B68022BAB
:102F880003D07B685B68032B07D13F4B1B6803F0BA
:102F98000073002B09D101236FE03B4B1B6803F042
:102FA8000203002B01D1012367E0374B9B6823F014
:102FB80003027B685B68344913438B60FDF70AFDA5
:102FC800F8600AE0FDF706FD0246FB68D31A41F2F5
:102FD8008832934201D903234FE02B4B9B6803F0BF
:102FE8000C027B685B689B009A42EBD1254B1B68FF
:102FF80003F00F033A689A420CD2224B3A68D2B2D5
:103008001A70204B1B6803F00F033A689A4201D0EC
:10301800012332E07B681B6803F00403002B08D00F
:10302800194B9B6823F4E0527B68DB68164913430D
:103038008B607B681B6803F00803002B09D0124BD8
:103048009B6823F460427B681B69DB000E491343CD
:103058008B6000F021F802460B4B9B681B0903F0BC
:103068000F030A49CB5C22FA03F3094A1360094BA0
:103078001B681846FDF76AFC002318461037BD4642
:1030880080BD00BF003C024000380240C87E0008F6
:1030980000000020040000202DE9B04384B000AFF8
:1030A80000237B600023FB6000233B600023BB60A0
:1030B800674B9B6803F00C03082B0DD0082B00F21C
:1030C800BD80002B02D0042B03D0B7E0614BBB605E
:1030D800B7E0614BBB60B4E05D4B5B6803F03F0356
:1030E8007B605B4B5B6803F48003002B4DD0584B2F
:1030F8005B689B091A464FF0000340F2FF104FF03F
:10310800000102EA000803EA0109404649464FF077
:1031180000024FF000034B0143EAD063420110461E
:103128001946B0EB080061EB09014FF000024FF0BF
:1031380000038B0143EA90638201121A63EB0103D7
:103148004FF000004FF00001D90041EA5271D00061
:1031580002460B4612EB080243EB09034FF000004E
:103168004FF00001590241EAD251500202460B4683
:10317800104619467B681A464FF00003FDF732F8EF
:1031880002460B461346FB604AE0314B5B689B09DD
:103198001A464FF0000340F2FF104FF0000102EA18
:1031A800000403EA0105204629464FF000024FF0CB
:1031B80000034B0143EAD063420110461946001B45
:1031C80061EB05014FF000024FF000038B0143EA69
:1031D80090638201121A63EB01034FF000004FF075
:1031E8000001D90041EA5271D00002460B4612197B
:1031F80045EB03034FF000004FF00001990241EA4C
:103208009251900202460B46104619467B681A46B0
:103218004FF00003FCF7E6FF02460B461346FB603F
:103228000B4B5B681B0C03F0030301335B003B6033
:10323800FA683B68B2FBF3F3BB6002E0054BBB6086
:1032480000BFBB6818461037BD46BDE8B08300BF55
:10325800003802400024F40000127A0080B400AF65
:10326800034B1B681846BD465DF8047B704700BFDA
:103278000000002080B500AFFFF7F0FF0246054BC5
:103288009B689B0A03F007030349CB5C22FA03F30C
:10329800184680BD00380240D87E000880B500AFCF
:1032A800FFF7DCFF0246054B9B685B0B03F0070347
:1032B8000349CB5C22FA03F3184680BD003802406C
:1032C800D87E000880B582B000AF78607B68002B9C
:1032D80001D101233FE07B6893F83930DBB2002B42
:1032E80006D17B68002283F838207868FDF70CFA4D
:1032F8007B68242283F839207B681B68DA687B683E
:103308001B6822F40052DA60786800F0F1FB7B68F1
:103318001B681A697B681B6822F490421A617B68F3
:103328001B685A697B681B6822F02A025A617B680D
:103338001B68DA687B681B6842F40052DA607B68B5
:103348000022DA637B68202283F839207B682022F8
:1033580083F83A20002318460837BD4680BD80B55B
:1033680088B002AFF860B9603B601346FB80002369
:103378007B61FB6893F83930DBB2202B40F0838007
:10338800BB68002B02D0FB88002B01D101237BE016
:10339800FB6893F83830012B01D1022374E0FB68F5
:1033A800012283F83820FB680022DA63FB682122B7
:1033B80083F83920FDF70EFB7861FB68FA889A8458
:1033C800FB68FA88DA84FB68002283F8382042E038
:1033D800FB68DB8C9BB2013B9AB2FB68DA84FB6822
:1033E8009B68B3F5805F22D13B6800937B6900221C
:1033F8008021F86800F010FA0346002B01D003235F
:1034080042E0BB683B613B691B881A46FB681B6846
:10341800C2F308025A60FB681B69002B03D1BB6822
:103428000233BB6017E0BB680133BB6013E03B6845
:1034380000937B6900228021F86800F0EDF90346CB
:10344800002B01D003231FE0BB685A1CBA601A780E
:10345800FB681B685A60FB68DB8C9BB2002BB7D1FA
:103468003B6800937B6900224021F86800F0D4F99A
:103478000346002B01D0032306E0FB68202283F8D3
:103488003920002300E0022318461837BD4680BDC6
:1034980080B588B002AFF860B9603B601346FB8026
:1034A80000237B61FB6893F83A30DBB2202B40F0B5
:1034B8009080BB68002B02D0FB88002B01D1012330
:1034C80088E0FB6893F83830012B01D1022381E0B2
:1034D800FB68012283F83820FB680022DA63FB6866
:1034E800222283F83A20FDF775FA7861FB68FA889A
:1034F8009A85FB68FA88DA85FB68002283F8382009
:103508005CE0FB68DB8D9BB2013B9AB2FB68DA8515
:10351800FB689B68B3F5805F2BD13B6800937B69A0
:1035280000222021F86800F077F90346002B01D02B
:1035380003234FE0BB683B61FB681B69002B0CD180
:10354800FB681B685B689BB2C3F308039AB23B69CC
:103558001A80BB680233BB6030E0FB681B685B689D
:103568009BB2DBB29AB23B691A80BB680133BB607D
:1035780024E03B6800937B6900222021F86800F072
:103588004BF90346002B01D0032323E0FB681B699A
:10359800002B08D1FB681B685968BB685A1CBA60C5
:1035A800CAB21A700AE0FB681B685B68DAB2BB68CB
:1035B800591CB96002F07F02D2B21A70FB68DB8D29
:1035C8009BB2002B9DD1FB68202283F83A20002370
:1035D80000E0022318461837BD4680BD80B588B084
:1035E80000AF78607B681B681B68FB617B681B68A1
:1035F800DB68BB617B681B685B697B6100233B619F
:103608000023FB60FB6903F00F033B613B69002B60
:103618000DD1FB6903F02003002B08D0BB6903F030
:103628002003002B03D0786800F0E0F9D0E03B6974
:10363800002B00F0B0807B6903F00103002B05D15B
:10364800BB6903F49073002B00F0A580FB6903F0BD
:103658000103002B0AD0BB6903F48073002B05D04B
:103668007B68DB6B43F001027B68DA63FB6903F07C
:103678000403002B0AD07B6903F00103002B05D05B
:103688007B68DB6B43F002027B68DA63FB6903F05B
:103698000203002B0AD07B6903F00103002B05D03D
:1036A8007B68DB6B43F004027B68DA63FB6903F039
:1036B8000803002B0FD0BB6903F02003002B04D1B3
:1036C8007B6903F00103002B05D07B68DB6B43F0BB
:1036D80008027B68DA637B68DB6B002B77D0FB69B9
:1036E80003F02003002B07D0BB6903F02003002B55
:1036F80002D0786800F07AF97B681B685B6903F090
:103708004003402B0CBF01230023DBB2FB607B6826
:10371800DB6B03F00803002B02D1FB68002B31D0D0
:10372800786800F0C3F87B681B685B6903F04003A6
:10373800402B23D17B681B685A697B681B6822F081
:1037480040025A617B685B6B002B13D07B685B6B14
:10375800214A1A657B685B6B1846FDF77CFA0346BD
:10376800002B16D07B685B6B1B6D7A68526B10461A
:1037780098470EE0786800F045F80AE0786800F0AD
:1037880041F806E0786800F03DF87B680022DA63CB
:103798001DE000BF1BE0FB6903F08003002B08D08D
:1037A800BB6903F08003002B03D0786800F0B0F801
:1037B8000EE0FB6903F04003002B09D0BB6903F05E
:1037C8004003002B04D0786800F0F8F800E000BF50
:1037D8002037BD4680BD00BFF138000880B483B0F3
:1037E80000AF786000BF0C37BD465DF8047B7047BA
:1037F80080B483B000AF786000BF0C37BD465DF879
:10380800047B704780B483B000AF786000BF0C378A
:10381800BD465DF8047B704780B584B000AFF860A2
:10382800B9603B601346FB712CE0BB69B3F1FF3F05
:1038380028D0BB69002B07D0FDF7CCF802463B68BF
:10384800D31ABA699A421DD2FB681B68DA68FB680A
:103858001B6822F4D072DA60FB681B685A69FB683F
:103868001B6822F001025A61FB68202283F8392084
:10387800FB68202283F83A20FB68002283F838206E
:1038880003230FE0FB681B681A68BB681340BA681B
:103898009A420CBF01230023DBB21A46FB799A42F5
:1038A800C3D0002318461037BD4680BD80B483B00E
:1038B80000AF78607B681B68DA687B681B6822F455
:1038C8009072DA607B681B685A697B681B6822F013
:1038D80001025A617B68202283F83A2000BF0C3726
:1038E800BD465DF8047B704780B584B000AF786052
:1038F8007B689B6BFB60FB680022DA85FB68002213
:10390800DA84F868FFF77EFF00BF1037BD4680BD38
:1039180080B485B000AF78607B6893F83930DBB24B
:10392800212B44D17B689B68B3F5805F1AD17B68F3
:103938001B6AFB60FB681B881A467B681B68C2F31E
:1039480008025A607B681B69002B05D17B681B6ADB
:103958009A1C7B681A620EE07B681B6A5A1C7B689B
:103968001A6208E07B681B6A591C7A6811621A7827
:103978007B681B685A607B68DB8C9BB2013B9BB2FF
:103988007A681946D184002B0FD17B681B68DA68E6
:103998007B681B6822F08002DA607B681B68DA6843
:1039A8007B681B6842F04002DA60002300E00223D3
:1039B80018461437BD465DF8047B704780B582B061
:1039C80000AF78607B681B68DA687B681B6822F048
:1039D8004002DA607B68202283F839207868FFF794
:1039E800FDFE002318460837BD4680BD80B584B06B
:1039F80000AF78607B6893F83A30DBB2222B71D144
:103A08007B689B68B3F5805F23D17B689B6AFB600A
:103A18007B681B69002B0ED17B681B685B689BB2B7
:103A2800C3F308039AB2FB681A807B689B6A9A1CE6
:103A38007B689A6229E07B681B685B689BB2DBB293
:103A48009AB2FB681A807B689B6A5A1C7B689A62E8
:103A58001BE07B681B69002B0AD17B681B685868D0
:103A68007B689B6A591C7A689162C2B21A700CE032
:103A78007B681B685B68DAB27B689B6A581C79684C
:103A8800886202F07F02D2B21A707B68DB8D9BB22B
:103A9800013B9BB27A681946D185002B20D17B68FF
:103AA8001B68DA687B681B6822F02002DA607B6892
:103AB8001B68DA687B681B6822F48072DA607B68AE
:103AC8001B685A697B681B6822F001025A617B688F
:103AD800202283F83A207868FFF78AFE002302E064
:103AE800002300E0022318461037BD4680BD0000C1
:103AF8002DE9F04FBDB000AFC7F8E400D7F8E430C7
:103B08001B681B6923F44050D7F8E430D968D7F80C
:103B1800E4301A6840EA01031361D7F8E4309A6880
:103B2800D7F8E4301B691A43D7F8E4305B691A43C5
:103B3800D7F8E430DB691343C7F8EC30D7F8E43042
:103B48001B68DB6823F4164121F00C01D7F8E43038
:103B58001A68D7F8EC300B43D360D7F8E4301B6809
:103B68005B6923F44070D7F8E4309969D7F8E430FA
:103B78001A6840EA01035361D7F8E430DB69B3F50A
:103B8800004F40F0A581D7F8E4301A68CD4B9A422F
:103B980006D0D7F8E4301A68CB4B9A4240F0CB8075
:103BA800FFF77CFBC7F8E800D7F8E8301C464FF071
:103BB800000522462B469118C7F888105B41C7F8C4
:103BC8008C30D7E92223121945EB03034FF000008C
:103BD8004FF00001D90041EA5271D00002460B466D
:103BE8001119C7F8D8106B41C7F8DC30D7F8E430A2
:103BF8005B681A464FF000039118C7F880105B41C4
:103C0800C7F88430D7E92023D7E93601FCF7EAFA68
:103C180002460B46AD4BA3FB02235B091E01D7F8F6
:103C2800E8301C464FF0000522462B469118B9672C
:103C38005B41FB67D7E91E23121945EB03034FF0DD
:103C480000004FF00001D90041EA5271D00002464D
:103C58000B461119C7F8D0106B41C7F8D430D7F804
:103C6800E4305B681A464FF00003911839675B41EE
:103C78007B67D7E91C23D7E93401FCF7B3FA02467E
:103C88000B46924BA3FB02135B09642101FB03F370
:103C9800D31ADB0032338D4AA2FB03235B095B0096
:103CA80003F4F8731E44D7F8E83018464FF00001C3
:103CB80002460B469418BC665B41FB66D7E91A239B
:103CC800121841EB03034FF000044FF00005DD002C
:103CD80045EA5275D40022462B461418C7F8C84046
:103CE8004B41C7F8CC30D7F8E4305B681A464FF040
:103CF8000003911839665B417B66D7E91823D7E939
:103D08003201FCF76FFA02460B46704BA3FB021315
:103D18005B09642101FB03F3D31ADB0032336B4ADE
:103D2800A2FB03235B0903F00702D7F8E4301B6802
:103D380032449A606DE2FFF79DFAC7F8E800D7F8B9
:103D4800E8301C464FF0000522462B469118B9650D
:103D58005B41FB65D7E91623121945EB03034FF0C6
:103D680000004FF00001D90041EA5271D00002462C
:103D78000B461119C7F8C0106B41C7F8C430D7F803
:103D8800E4305B681A464FF00003911839655B41CF
:103D98007B65D7E91423D7E93001FCF723FA0246FB
:103DA8000B464A4BA3FB02235B091E01D7F8E830F8
:103DB8001C464FF0000522462B469118B9645B411A
:103DC800FB64D7E91223121945EB03034FF00000F7
:103DD8004FF00001D90041EA5271D00002460B466B
:103DE8001119C7F8B8106B41C7F8BC30D7F8E430E0
:103DF8005B681A464FF00003911839645B417B6495
:103E0800D7E91023D7E92E01FCF7ECF902460B4657
:103E18002E4BA3FB02135B09642101FB03F3D31AA6
:103E2800DB003233294AA2FB03235B095B0003F45E
:103E3800F8731E44D7F8E83018464FF000010246E0
:103E48000B469418BC635B41FB63D7E90E23121839
:103E580041EB03034FF000044FF00005DD0045EA95
:103E68005275D40022462B461418C7F8B0404B416F
:103E7800C7F8B430D7F8E4305B681A464FF000034F
:103E8800911839635B417B63D7E90C23D7E92C018F
:103E9800FCF7A8F902460B460C4BA3FB02135B097F
:103EA800642101FB03F3D31ADB003233074AA2FB78
:103EB80003235B0903F00702D7F8E4301B68324498
:103EC8009A60A6E100100140001401401F85EB51E3
:103ED800D7F8E4301A68D14B9A4206D0D7F8E430C4
:103EE8001A68CF4B9A4240F0CA80FFF7D7F9C7F853
:103EF800E800D7F8E8301C464FF0000522462B466C
:103F08009118B9625B41FB62D7E90A23121945EBA4
:103F180003034FF000004FF00001D90041EA52714D
:103F2800D00002460B4612EB040A43EB050BD7F808
:103F3800E4305B6818464FF000014FF000024FF084
:103F480000038B0043EA9073820050465946FCF701
:103F580049F902460B46B34BA3FB02235B091E013A
:103F6800D7F8E83018464FF0000102460B4694187F
:103F78003C625B417B62D7E90823121841EB0303DB
:103F88004FF000044FF00005DD0045EA5275D400FB
:103F980022462B461418C7F8A8404B41C7F8AC3046
:103FA800D7F8E4305B6818464FF000014FF0000284
:103FB8004FF000038B0043EA90738200D7E92A018F
:103FC800FCF710F902460B46964BA3FB02135B095C
:103FD800642101FB03F3D31A1B013233914AA2FB7C
:103FE80003235B0903F0F0031E44D7F8E8301846B2
:103FF8004FF0000102460B469418BC615B41FB611F
:10400800D7E90623121841EB03034FF000044FF0E1
:104018000005DD0045EA5275D40022462B461418E7
:10402800C7F8A0404B41C7F8A430D7F8E4305B6824
:1040380018464FF000014FF000024FF000038B00CC
:1040480043EA90738200D7E92801FCF7CBF80246CF
:104058000B46744BA3FB02135B09642101FB03F3BA
:10406800D31A1B0132336F4AA2FB03235B0903F007
:104078000F02D7F8E4301B6832449A60C9E0FFF7B2
:10408800F9F8C7F8E800D7F8E8301C464FF0000503
:1040980022462B46911839615B417B61D7E904239D
:1040A800121945EB03034FF000004FF00001D9004F
:1040B80041EA5271D00002460B4612EB040843EB6A
:1040C8000509D7F8E4305B6818464FF000014FF057
:1040D80000024FF000038B0043EA907382004046D1
:1040E8004946FCF77FF802460B464E4BA3FB0223DA
:1040F8005B091E01D7F8E83018464FF00001024668
:104108000B469418BC605B41FB60D7E90223121888
:1041180041EB03034FF000044FF00005DD0045EAD2
:104128005275D40022462B461418C7F898404B41C4
:10413800C7F89C30D7F8E4305B6818464FF00001A8
:104148004FF000024FF000038B0043EA90738200A7
:10415800D7E92601FCF746F802460B46314BA3FB8C
:1041680002135B09642101FB03F3D31A1B013233E9
:104178002C4AA2FB03235B0903F0F0031E44D7F883
:10418800E83018464FF0000102460B4694183C6090
:104198005B417B60D7E90023121841EB03034FF022
:1041A80000044FF00005DD0045EA5275D4002246B0
:1041B8002B461418C7F890404B41C7F89430D7F8ED
:1041C800E4305B6818464FF000014FF000024FF0F2
:1041D80000038B0043EA90738200D7E92401FCF7BF
:1041E80001F802460B460F4BA3FB02135B0964213F
:1041F80001FB03F3D31A1B0132330A4AA2FB032340
:104208005B0903F00F02D7F8E4301B6832449A6068
:10421800FFE700BFF437BD46BDE8F08F001001404E
:10422800001401401F85EB5184B080B584B000AF05
:10423800786007F11C0080E80E003B6B012B22D14F
:104248007B689B6B23F480327B689A637B68DB68AE
:1042580023F4840323F040037A68D3607B68DB6827
:1042680023F440127B68DA60FB6C012B05D17B6874
:10427800DB6843F480127B68DA60786800F04AF9FA
:104288000346FB731AE07B68DB6843F040027B68F7
:10429800DA60786800F03EF90346FB733B6C002B4C
:1042A80006D17B689B6B43F480327B689A6305E098
:1042B8007B689B6B23F480327B689A63BB6A012B13
:1042C8000BD17B689B6843F006027B689A607B6829
:1042D8009B6843F020027B689A60FB7B1846103786
:1042E800BD46BDE8804004B0704780B483B000AFDD
:1042F80078607B689B6843F001027B689A600023C2
:1043080018460C37BD465DF8047B704780B483B00F
:1043180000AF78607B689B6823F001027B689A6035
:10432800002318460C37BD465DF8047B704780B5FE
:1043380082B000AF78600B46FB707B68DB6823F0C7
:10434800C0427B68DA60FB78012B06D17B68DB68AA
:1043580043F000527B68DA600BE0FB78002B06D153
:104368007B68DB6843F080427B68DA6001E0012308
:1043780003E03220FCF73AFB002318460837BD4615
:1043880080BD000080B485B000AF7860396000233C
:10439800FB603B689B0143F020027B681A61FB6865
:1043A8000133FB60FB68094A934201D9032306E005
:1043B8007B681B6903F02003202BF0D000231846EC
:1043C8001437BD465DF8047B704700BF400D0300FD
:1043D80080B485B000AF78600023FB607B68102252
:1043E8001A61FB680133FB60FB68094A934201D9F3
:1043F800032306E07B681B6903F01003102BF0D041
:10440800002318461437BD465DF8047B704700BF8B
:10441800400D030080B489B000AFF860B960114660
:104428001A460B46FB711346BB80FB687B61BB6871
:10443800FB6197F82830002B1AD1BB8803339B08FF
:104448003B610023BB610FE0FB791A037B691344CE
:1044580003F580531A46FB691B681360FB69043334
:10446800FB61BB690133BB61BA693B699A42EBD313
:10447800002318462437BD465DF8047B704780B496
:1044880089B000AFF860B9601346FB80FB687B61B8
:10449800BB68FB61FB8803339B083B610023BB615E
:1044A8000BE07B6903F580531A68FB691A60FB69A6
:1044B8000433FB61BB690133BB61BA693B699A424A
:1044C800EFD3FB6918462437BD465DF8047B704777
:1044D80080B485B000AF78607B685B69FB607B68FF
:1044E8009B69FA681340FB60FB6818461437BD46A1
:1044F8005DF8047B704780B483B000AF78607B6858
:104508005B6903F0010318460C37BD465DF8047B70
:104518007047000080B485B000AF78600023FB606E
:10452800FB680133FB60FB68134A934201D90323FC
:104538001BE07B681B69002BF2DA0023FB607B68B9
:104548001B6943F001027B681A61FB680133FB6059
:10455800FB68094A934201D9032306E07B681B697B
:1045680003F00103012BF0D0002318461437BD4691
:104578005DF8047B704700BF400D030084B080B530
:1045880084B000AF786007F11C0080E80E007B68FB
:10459800BB60BB6803F560631A46002313607B6841
:1045A8009B6B43F400127B689A637B689B6B23F4D4
:1045B80000227B689A637B689B6B23F480227B686C
:1045C8009A637B68DB6B03F48073002B18D07B6ADB
:1045D800012B0AD1BB6803F580631B68BA6802F532
:1045E800806243F00403136014E0BB6803F5806342
:1045F8001B68BA6802F5806223F00403136009E0BF
:10460800BB6803F580631B68BA6802F5806223F013
:104618000403136010217868FFF7B4FE7868FFF789
:10462800D7FE0023FB6015E0FB685A01BB68134402
:1046380003F5A0631A464FF0FF339360FB685A01F5
:10464800BB68134403F5A0631A460023D360FB68D4
:104658000133FB603B6AFA689A42E5D30121786826
:1046680000F0ACF8C820FCF7C1F97B6800229A6119
:104678007B684FF0FF325A617B68DB6B03F4807311
:10468800002B0BD07B684FF400725A627B68144A87
:104698009A627B68134AC3F8002109E07B6880228C
:1046A8005A627B68104A9A627B68104AC3F80021F4
:1046B800BB6A002B05D17B689B6943F010027B68BD
:1046C8009A617B689A690A4B13437A68936100235D
:1046D80018461037BD46BDE8804004B0704700BF9B
:1046E800000200010003E00080006000E0004000DC
:1046F800080020A380B485B000AF78600B46FB703B
:104708007B68FB60FB6803F580631B68FA6802F549
:10471800806223F003031360FB6803F580631A6863
:10472800FB7803F00303F96801F5806113430B601C
:10473800FB78012B07D1FB6803F580631A464BF61B
:104748008033536009E0FB78022B06D1FB6803F540
:1047580080631A4641F27073536000231846143779
:10476800BD465DF8047B704780B584B000AF7860C3
:104778007B68FB600023BB60FB6803F588631B68EC
:10478800BB60BB6823F02E03BB60BB68FA6802F508
:10479800886243F4807313606420FCF727F9BB68D0
:1047A800FA6802F5886223F4807313600A20FCF724
:1047B8001DF9002318461037BD4680BD80B485B06A
:1047C80000AF78600B46FB707B68FB600023BB6022
:1047D800FB6803F588631B68BB60BB6823F02E0386
:1047E800BB60BB6803F48053002B09D1FB78012B15
:1047F80006D1BB68FA6802F5886243F480531360F7
:10480800BB6803F48053B3F5805F09D1FB78002BB4
:1048180006D1BB68FA6802F5886223F480531360F6
:10482800002318461437BD465DF8047B704780B4F2
:1048380085B000AF78607B68FB600023BB60FB68D5
:1048480003F588631B68BB60BB685B0C03F003035C
:1048580018461437BD465DF8047B704780B485B0B0
:1048680000AF78607B68FB60FB6803F580639B683A
:104878009BB218461437BD465DF8047B70470000AC
:1048880080B487B000AF7860084611461A460346E0
:10489800FB700B46BB7013467B700023FB757B686F
:1048A800BB60FB785A01BB68134403F5A0631A4642
:1048B8004FF0FF33936097F82430032B7ED801A282
:1048C80052F823F0DD48000887490008DD48000851
:1048D80049490008FB785A01BB68134403F5A063F3
:1048E8001A4640F29D43D36097F90230002B10DA44
:1048F800FB785A01BB68134403F5A063DB68FA78B8
:104908005101BA680A4402F5A06243F48073D36087
:1049180057E07B68DB6B03F48073002B51D0FB7886
:104928005A01BB68134403F5A063DB68FA785101A8
:10493800BA680A4402F5A06243F06003D36040E01D
:10494800FB785A01BB68134403F5A0631A4640F28A
:104958009D63D36097F90230002B34DAFB785A0153
:10496800BB68134403F5A063DB68FA785101BA68A1
:104978000A4402F5A06243F48073D36023E0FB7815
:104988005A01BB68134403F5A0631A4640F2252375
:10499800D36097F90230002B17DAFB785A01BB680D
:1049A800134403F5A063DB68FA785101BA680A4436
:1049B80002F5A06243F4C073D36006E00123FB75DF
:1049C80004E000BF02E000BF00E000BFBB6803F5E1
:1049D80080639A69FB7803F00F03012101FA03F35E
:1049E800B96801F5806113438B617B689B6943F06B
:1049F80000727B689A6197F90230002B03DA4FF452
:104A080000433B6101E000233B6197F82030022B13
:104A180003D14FF40033FB6001E00023FB607B7897
:104A28009B0503F0FE52BB78DB0203F4F0431A4304
:104A380097F824309B0403F440231A433B8DC3F3B7
:104A48000A031A433B691A43FB785901BB680B44B4
:104A580003F5A0631946FB6813430B6097F82430ED
:104A6800032B0FD1FB785A01BB68134403F5A063ED
:104A78001B68FA785101BA680A4402F5A06243F04B
:104A880000531360FB7D18461C37BD465DF8047B58
:104A9800704700BF80B58CB002AFF860B9601346AC
:104AA800FB71FB683B62BB685B78FB614FF480730A
:104AB8007B83FB68DB6B03F48073002B28D0BB6817
:104AC8001B79002B24D1FB79002B0BD1BB685B79B8
:104AD800012B07D1BB685B781946F86800F02CFAFF
:104AE800002311E1FB79012B12D1FB695A013B6AC2
:104AF800134403F5A063DB68FA6951013A6A0A4472
:104B080002F5A06223F06003D360BB6800225A71EB
:104B1800BB681B69002B18D0BB681B69BA6812896F
:104B28001344013BBA681289B3FBF2F3FB84FA8C95
:104B38007B8B9A420BD97B8BFB84FB8CBA681289DE
:104B480002FB03F2BB681A6101E00123FB84BB6826
:104B5800DB78002B06D0FB8CBA68128902FB03F2C3
:104B6800BB681A61BB681B69C3F31202FB8CD904CA
:104B7800674B0B401A43BB689B7A5B0703F0C04343
:104B8800F9694801396A014401F5A06113430B61D1
:104B9800FB79002B09D0BB68D968FB695A013B6ACD
:104BA800134403F5A0630A465A613B6A03F5806320
:104BB8009B6803F00103002B0CBF01230023DBB229
:104BC8007B76FB695A013B6A134403F5A0631B68B3
:104BD800FA6951013A6A0A4402F5A06223F00053C7
:104BE8001360FB695A013B6A134403F5A0631A6812
:104BF8007B7E5B07F9694801396A014401F5A061C8
:104C080013430B60FB695A013B6A134403F5A06325
:104C18001B68404A13603F4B1B6823F080433D4AA2
:104C28001360BB68DB78002B06D03A4B1B6843F453
:104C38000043384A136005E0364B1B6823F40043F1
:104C4800344A1360334B1B6843F00043314A136006
:104C5800FB695A013B6A134403F5A0631A462D4BBE
:104C68001B681360FB79002B4DD1BB68DB78002BE8
:104C780049D1BB681B69002B45D0BB68DB79032B86
:104C880030D801A252F823F0A14C0008C54C000806
:104C9800A14C0008C54C0008BB681B6903339B087E
:104CA800FB82FA8AFB68DB6A9BB29A421CD9FB68D2
:104CB8009B6943F02002FB689A6115E0BB681B6999
:104CC80003339B08FB82FA8A3B6A03F580631B69FE
:104CD8009BB29A420AD9FB689B6943F08062FB68E1
:104CE8009A6103E000BF02E000BF00E000BFBB68BC
:104CF800D968BB685A78BB681B699BB200200090D2
:104D0800F868FFF787FB002318462837BD4680BDA3
:104D18000000F81FB000002080B485B000AF7860B4
:104D28007B68FB60FB6803F580635B699BB2184690
:104D38001437BD465DF8047B704780B487B000AF78
:104D480078600B46FB707B683B61FB78FB60002357
:104D58007B61FB685A013B69134403F5A0631B6838
:104D68009B0C03F00303BB60BB68002B02D0BB683D
:104D7800022B6CD1FB685A013B69134403F5A0630D
:104D88001B68FA6851013A690A4402F5A06243F0C7
:104D9800804313607B68DB6A03F47F03002B43D1F5
:104DA800FB685A013B69134403F5A0631B68FA6862
:104DB80051013A690A4402F5A06223F000431360E6
:104DC800FB685A013B69134403F5A0631B68FA6842
:104DD80051013A690A4402F5A06243F000431360A6
:104DE800FB685A013B69134403F5A0631B68FA6822
:104DF80051013A690A4402F5A06223F400431360A2
:104E08007B6901337B617B69B3F57A7F1DD8FB68C9
:104E18005A013B69134403F5A0631B6803F0004380
:104E2800B3F1004FECD080E0FB685A013B691344B2
:104E380003F5A0631B68FA6851013A690A4402F550
:104E4800A06243F0004313606FE000BF6DE0FB68B1
:104E58005A013B69134403F5A0631B68FA685101C2
:104E68003A690A4402F5A06243F0804313603B6943
:104E780003F580631B6903F47F03002B43D1FB68B0
:104E88005A013B69134403F5A0631B68FA68510192
:104E98003A690A4402F5A06223F000431360FB68F4
:104EA8005A013B69134403F5A0631B68FA68510172
:104EB8003A690A4402F5A06243F000431360FB68B4
:104EC8005A013B69134403F5A0631B68FA68510152
:104ED8003A690A4402F5A06223F4004313607B692F
:104EE80001337B617B69B3F57A7F1DD8FB685A0172
:104EF8003B69134403F5A0631B6803F00043B3F157
:104F0800004FECD011E0FB685A013B69134403F5EC
:104F1800A0631B68FA6851013A690A4402F5A06265
:104F280043F00043136000E000BF002318461C371D
:104F3800BD465DF8047B704780B487B000AF7860E9
:104F48000B46FB707B687B61FB783B610123FB6050
:104F5800FB68DA04154B13403A6951017A690A442F
:104F680002F5A06243F0004313613B695A017B6973
:104F7800134403F5A0631B68BB60BB6823F0804340
:104F8800BB60BB6843F00043BB603B695A017B6967
:104F9800134403F5A0631A46BB6813600023184640
:104FA8001C37BD465DF8047B704700BF0000F81F42
:104FB80080B586B000AF78607B68FB6000237B61BA
:104FC8007868FFF7A3F910217868FFF7DBF97868AC
:104FD800FFF7FEF900233B611FE03B695A01FB68BC
:104FE800134403F5A0631B68BB60BB6843F08043B0
:104FF800BB60BB6823F00043BB60BB6823F400437D
:10500800BB603B695A01FB68134403F5A0631A4669
:10501800BB6813603B6901333B613B690F2BDCD9EB
:1050280000233B6134E03B695A01FB68134403F5F4
:10503800A0631B68BB60BB6843F08043BB60BB6870
:1050480043F00043BB60BB6823F40043BB603B698B
:105058005A01FB68134403F5A0631A46BB68136042
:105068007B6901337B617B69B3F57A7F0CD83B6937
:105078005A01FB68134403F5A0631B6803F000435F
:10508800B3F1004FECD000E000BF3B6901333B6156
:105098003B690F2BC7D9FB6803F580631A464FF0AD
:1050A800FF3353617B684FF0FF325A617868FFF72E
:1050B8001CF9002318461837BD4680BD80B485B05A
:1050C80000AFF860B9601346FB80FB6800229A8045
:1050D800FB680022DA80FB6800229A72FB68FA8873
:1050E8001A81FB68BA681A6000BF1437BD465DF8BC
:1050F800047B704780B584B000AF78607B68D3F8D4
:105108007C33DB69BB60244B00229A70224B9A786F
:10511800214B5A70204B00221A711F4B1A791E4BD3
:10512800DA701D4B00229A711B4B9A791A4B5A71EF
:10513800194B00221A72184B1A7A174BDA7100238E
:10514800FB600CE0154AFB68002142F82310144A62
:10515800FB68002142F82310FB680133FB60FB6801
:10516800012BEFD9BB681B8B082B02D9BB6808221F
:105178001A83BB680A4A5A61BB6803F108007B6856
:1051880003F58E7350221946FFF798FF002318463F
:105198001037BD4680BD00BF18010020080100205F
:1051A8001001002090B589B004AF78607B68D3F80F
:1051B8007C43202002F09EFC0346E3617B68D3F821
:1051C8007C33DB69BB6020220021B86802F0A2FCB6
:1051D800BB6800229A70BB684FF41652DA61BB684C
:1051E8000A229A727B68B3F82E23BB681A837B68FD
:1051F800B3F83023BB685A837B68D3F87C331979BA
:10520800FF230122786800F019FF03461A46BB689D
:105218005A70BB685B7819467A681A2303FB01F356
:10522800134403F24E331A78BB68DA71BB685B78B3
:1052380019467A681A2303FB01F3134403F55473E0
:105248001A88BB681A81BB685B7819467A681A2382
:1052580003FB01F3134403F24E331A78BB689A71C7
:10526800BB689B791946786802F0C7F803461A4666
:10527800BB681A71BB685B7819467A681A2303FB06
:1052880001F3134403F256331A78BB685A71BB68AA
:105298005B791946786802F0B0F803461A46BB688D
:1052A800DA707B68D3F87C331B79072B07D14FF46E
:1052B800FA73102232493348FEF751F806E04FF4EA
:1052C800FA73142230492F48FEF749F80023FB608F
:1052D8004DE0BB685B7818467A68FB680133D900F3
:1052E8001A2303FB00F30B44134403F246331B78E1
:1052F8005BB2002B1CDABB681979BB6898797B68AC
:1053080093F81C437B6893F81D33BA68128902929C
:1053180002220192009323460246786802F03EF882
:10532800BB681B7900221946786802F04FFB1BE026
:10533800BB68D978BB6858797B6893F81C437B684D
:1053480093F81D33BA6812890292022201920093DF
:1053580023460246786802F021F8BB68DB78002211
:105368001946786802F032FBFB680133FB60FB6882
:10537800012BAEDD002318461437BD4690BD00BF93
:10538800247D0008C4000020387D000880B584B062
:1053980000AF78607B68D3F87C33DB69FB60FB681F
:1053A8001B79002B0ED0FB681B791946786802F030
:1053B80014F8FB681B791946786802F03FF8FB6817
:1053C80000221A71FB68DB78002B0ED0FB68DB78B3
:1053D8001946786802F001F8FB68DB7819467868A6
:1053E80002F02CF8FB680022DA707B68D3F87C3373
:1053F800DB69002B0BD07B68D3F87C33DB6918465C
:1054080002F080FB7B68D3F87C330022DA6100234A
:1054180018461037BD4680BD80B5A8B000AF78608B
:1054280007F1080396220021184602F073FB00BF1B
:1054380007F1080396221946786800F09AF903469E
:10544800002BF5D107F1080396220021184602F037
:1054580061FB00BF07F1080396221946786800F03F
:10546800A9F90346002BF5D107F10803962200217C
:10547800184602F04FFB00231846A037BD4680BDF2
:1054880080B5ADF5FC5D86B000AF07F11803143B9D
:105498001860002307F5FC5202F116021380FF235F
:1054A80007F5FC5202F115021370002307F5FC52B0
:1054B80002F11402137007F11803143B1B68D3F8A8
:1054C8007C33DB6907F5FC5202F11002136007F523
:1054D800FA5303F10C0340220021184602F01AFB8C
:1054E80007F118030C3B4FF4FA520021184602F05A
:1054F80011FB07F5FC5303F110031B680A229A728B
:1055080007F5FC5303F110031B681B78032B00F20B
:10551800F68001A252F823F03155000841550008E1
:10552800735500086B56000807F5FC5303F1100388
:105538001B6801221A70ECE007F11803143B1B6882
:10554800D3F8C43303F00103002B06D007F5FC534E
:1055580003F110031B6802221A7007F5FC5303F1CC
:1055680010031B6802221A70D3E007F118030C3BE2
:105578001846FAF72FFE024607F118030C3B0021E4
:10558800184602F0C7FA07F118010C394FF4FA630C
:105598004FF4FA526248FDF77BFF07F118030C3B02
:1055A8001846FAF717FE0346102B40F2AF80322355
:1055B8000F225C495A48FDF7D2FE07F118030C3B4D
:1055C800194607F5FC5303F11003186800F0E8F9D1
:1055D80000F0C4FA0346002B1AD007F118030C3B5D
:1055E800184600F0C3FA07F5FC5303F10C031860E2
:1055F80007F11803143B07F5FC5202F10C0212687C
:1056080007F5FC5101F110010968186800F092FBD8
:1056180007F118020C3A07F11803143B07F5FC517F
:1056280001F110010968186800F084FB07F5FC53C4
:1056380003F110031B6803221A7007F11803143BC7
:105648001B68D3F8C42307F5FC5303F110031B6848
:10565800DA6007F5FC5303F110031B6800221A7483
:1056680054E007F5FC5303F110031B681A7907F19E
:105678001803143B1146186802F06EF90346012B13
:1056880046D107F5FC5303F110031B681A7907F19B
:105698001803143B1146186802F05EF9034607F533
:1056A800FC5202F11402137007F5FC5303F11003C6
:1056B8001B681A7907F11803143B1146186802F0A1
:1056C800B9F8034607F5FC5202F11602138007F5F4
:1056D800FC5303F110031B6802221A7007F5FC53F0
:1056E80003F110031B689B7A5B00184602F0A1F9CE
:1056F80032230F220C490A48FDF731FE08E0322315
:1057080012220A490648FDF72AFE02E000BF00E01F
:1057180000BF0023184607F5FC571837BD4680BD63
:10572800C4000020507D0008607D0008707D0008DE
:1057380080B485B000AF78607B68D3F87C33DB69D0
:10574800FB60FB681B78032B0CD17B68D3F8C42360
:10575800FB68DB68D31AFA68927A934202D3FB6833
:1057680000221A70002318461437BD465DF8047BE2
:10577800704780B584B000AFF860B9601346FB800D
:10578800FB68A1221A74FB6800225A74FB68002285
:105798005A82FB6800229A82FB68FA88DA82FB88C0
:1057A8001A46B968F86801F0C6FB03461846103770
:1057B800BD4680BD80B584B000AFF860B9601346BF
:1057C800FB80FB68A1221A74FB6801225A74FB68EB
:1057D80000225A82FB6800229A82FB68FA88DA82E1
:1057E800FB881A46B968F86801F0A5FB0346184615
:1057F8001037BD4680BD000080B582B000AF78602C
:1058080014497868FAF7DCFC0346002B01D1012320
:105818001BE011497868FAF7D3FC0346002B01D145
:10582800022312E00D497868FAF7CAFC0346002BF8
:1058380001D1032309E00A497868FAF7C1FC034655
:10584800002B01D1042300E0002318460837BD4689
:1058580080BD00BF847D00088C7D0008987D00080D
:10586800A87D000880B584B000AF78607868FAF742
:10587800B1FC0346DBB2013BFB730023BB7300237F
:105888007B7317E0BB7B7A6813441B787B73FB7BC5
:105898007A681A44BB7B591CB97319467B680B4458
:1058A80012781A70FB7B5A1EFA731A467B681344E7
:1058B8007A7B1A70BA7BFB7B9A42E3D300BF00BFA6
:1058C8001037BD4680BD000080B584B000AF786059
:1058D80039600023FB7319E03968114BA3FB0123DE
:1058E800DA0813469B0013445B00CA1AD2B2FB7B4A
:1058F800591CF97319467B680B443032D2B21A70BE
:105908003B68074AA2FB0323DB083B603B68002B8C
:10591800E2D17868FFF7A6FF00BF1037BD4680BD0B
:10592800CDCCCCCC80B584B000AF78600023FB60D0
:105938000023BB600FE0FA6813469B0013445B002A
:105948001946BB687A6813441B780B44303BFB60EC
:10595800BB680133BB607868FAF73CFC0246BB6859
:105968009A42E8D8FB6818461037BD4680BD80B516
:1059780082B000AF78607868FFF7D4FF0346184616
:105988000837BD4680BD80B582B000AF78607868C2
:10599800FAF736FE012318460837BD4680BD0000D9
:1059A80080B594B000AF786039603868FAF712FCB7
:1059B8000346A7F84C30002387F84F3097F84F304C
:1059C80087F84B3007F1080340220021184602F0FF
:1059D800A1F8B7F84C30002B01D10123B2E0B7F899
:1059E8004C300F2B01D90023ACE03868FFF704FFD7
:1059F800034687F84B3097F84B30013B032B00F2F6
:105A0800948001A252F823F0215A0008A15A0008F4
:105A1800D55A00082D5B00087B681B8B1A4607F1D6
:105A2800080311461846FFF74FFF07F10803184609
:105A3800FAF7D0FB03469AB207F108014FF47A73DC
:105A48004248FDF78CFC7B685B8B1A4607F108031C
:105A580011461846FFF738FF4FF47A7301223C4984
:105A68003A48FDF77CFC07F108031846FAF7B2FB41
:105A780003469AB207F108014FF47A733348FDF7E9
:105A88006EFC07F1080340220021184602F042F894
:105A9800012387F84F3053E07B68DA6907F1080380
:105AA80011461846FFF710FF07F108031846FAF7E2
:105AB80091FB03469AB207F108014FF47A73234821
:105AC800FDF74DFC012387F84F3039E04FF47A7326
